:0400000063EF00F0BA
:060008003782D0EF08F082
:100018003780D8CF13F0E8CF14F0E0CF15F0FACF3F
:1000280016F0FBCF17F0E9CF18F0EACF19F0E1CFBF
:100038001AF0E2CF1BF0D9CF1CF0DACF1DF0F3CFC6
:100048001EF0F4CF1FF0F6CF20F0F7CF21F0F8CF55
:1000580022F0F5CF23F037C024F038C025F039C09E
:1000680026F03AC027F027C03AF026C039F025C05C
:1000780038F024C037F023C0F5FF22C0F8FF21C0B4
:10008800F7FF20C0F6FF1FC0F4FF1EC0F3FF1DC01E
:10009800DAFF1CC0D9FF1BC0E2FF1AC0E1FF19C07C
:1000A800EAFF18C0E9FF17C0FBFF16C0FAFF15C02A
:1000B800E0FF14C0E8FF13C0D8FF37901000BAEF74
:0200C80009F03D
:101000000048656C6C6F2100427965210000000E7C
:10101000966EF80E996E909290909094000E296EB4
:10102000C80E286EA0EC09F0000E2D6E300E83EC79
:1010300009F0000E2D6E300E83EC09F0000E2D6EBF
:10104000300E83EC09F0000E2D6E380E83EC09F0A3
:10105000000E2D6E100E83EC09F0000E2D6E0F0E9B
:1010600083EC09F0000E2D6E060E83EC09F020EEE5
:1010700082F010EE60F01F0EDBCFE3FFE806FCE22B
:10108000000E2D6E400E83EC09F0000E296E1E0E30
:10109000286ED1EC09F0000E0001816F000E806F08
:1010A00081BF06D0815119E1400E805DD8B015D0C6
:1010B000010E2D6E600E8025D96E000E8121DA6E34
:1010C000DF5083EC09F0000E296E1E0E286ED1EC65
:1010D00009F00001804B812BE3D7000E2D6E010E2D
:1010E00083EC09F0000E296E640E286EA0EC09F066
:1010F000120028EC0AF0000E306E010E2F6E000E6A
:10110000326E010E316EE6EC09F0010E306E100EFB
:10111000316E56EC09F0070E296ED00E286EA0EC49
:1011200009F0000E0001616F020E606F000E636F28
:10113000010E626F09EC0AF0000E346E000E336E81
:1011400034BE06D0345013E1040E335CD8B00FD057
:1011500033C02FF034C030F022EC0AF0030E296EB9
:10116000E80E286EA0EC09F0334A342AE9D7070EBE
:10117000296ED00E286EA0EC09F016EC0AF0000ED5
:10118000306E010E2F6E000E326E010E316EE6ECE7
:1011900009F0080E306E100E316E56EC09F0FFD7D4
:1011A000FACF01F0FBCF02F0E9CF03F0EACF04F071
:1011B000E1CF05F0E2CF06F0D9CF07F0DACF08F0A3
:1011C000F3CF09F0F4CF0AF0F6CF0BF0F7CF0CF025
:1011D000F8CF0DF0F5CF0EF037C00FF038C010F09B
:1011E00039C011F03AC012F012C03AF011C039F013
:1011F00010C038F00FC037F00EC0F5FF0DC0F8FF7B
:101200000CC0F7FF0BC0F6FF0AC0F4FF09C0F3FFE4
:1012100008C0DAFF07C0D9FF06C0E2FF05C0E1FF42
:1012200004C0EAFF03C0E9FF02C0FBFF01C0FAFFF0
:10123000379211002C0E2C6E000E2D6E22D0250E32
:101240002F18D8B404D006D0284A292A1AD0000E64
:101250002E6E07D028C0D9FF29C0DAFF2FC0DFFFCC
:10126000F3D72AC0F6FF2BC0F7FF2A4A2B2A000E1D
:10127000F86E0800F5CF2FF02F50000AD8B40FD029
:10128000E9D72AC0F6FF2BC0F7FF2A4A2B2A000E07
:10129000F86E0800F5CF2FF02F50D8A4D0D728C073
:1012A000D9FF29C0DAFF000EDF6E1200600E286E33
:1012B000000E296E30C02AF031C02BF01AEC09F074
:1012C000000E2D6E355083EC09F0000E0001716F99
:1012D000000E706F0ED0010E2D6E600E7025D96E4F
:1012E000000E7121DA6EDF5083EC09F00001704BC3
:1012F000712B600E7025D96E000E7121DA6EDF50F1
:10130000D8B41200E8D72E6E2DB002D0909401D040
:101310009084000E296E010E286EA0EC09F02EC0FC
:101320008DFF9080000E296E010E286ED1EC09F021
:101330009090000E296E320E286ED1EC09F012004A
:10134000000E2C6E000E2B6E0AD0090E2A6E1C0E9B
:10135000E82EFED72A2EFCD700D02B4A2C2A285064
:101360002B5C2C50800A2A6E2950800A2A58D8B04B
:101370001200EBD7F20EF66E130EF76E000EF86E3B
:1013800000EE82F010EE20F00900F5CFEEFFE55000
:10139000E150FAE1366A356A37903792000179EF09
:1013A00008F0000E2C6E000E2B6E05D000D000D081
:1013B00000D02B4A2C2A28502B5C2C50800A2A6EF5
:1013C0002950800A2A58D8B01200F0D7020E2F18E0
:1013D0003010D8B402D07F0E01D0BF0E3124356E4C
:1013E000000E3220366E000E2D6E355083EC09F063
:1013F00012001F1F0009000400111F1F0015110516
:10140000141512091209001F001F0E08020E001FFA
:10141000001F16EC0AF060C02FF061C030F062C00F
:1014200031F063C032F0E6EC09F01200000E2D6ED0
:10143000010E83EC09F0000E296E320E286EA0EC2E
:1014400009F01200010E2D6E2F5083EC09F01200EE
:0614500007EC08F0120099
:020000040001F9
:06FFF800A0F4C4FFF8F7BD
:00000001FF
