:0400000063EF00F0BA
:06000800358277EF08F0DD
:100018003580D8CF13F0E8CF14F0E0CF15F0FACF41
:1000280016F0FBCF17F0E9CF18F0EACF19F0E1CFBF
:100038001AF0E2CF1BF0D9CF1CF0DACF1DF0F3CFC6
:100048001EF0F4CF1FF0F6CF20F0F7CF21F0F8CF55
:1000580022F0F5CF23F035C024F036C025F037C0A4
:1000680026F038C027F027C038F026C037F025C062
:1000780036F024C035F023C0F5FF22C0F8FF21C0B8
:10008800F7FF20C0F6FF1FC0F4FF1EC0F3FF1DC01E
:10009800DAFF1CC0D9FF1BC0E2FF1AC0E1FF19C07C
:1000A800EAFF18C0E9FF17C0FBFF16C0FAFF15C02A
:1000B800E0FF14C0E8FF13C0D8FF359010008AEFA6
:0200C80009F03D
:091000000048656C6C6F210000D2
:10100A00000E966EF80E996E909290909094000E43
:10101A00296EC80E286E70EC09F0000E2D6E300E87
:10102A0053EC09F0000E2D6E300E53EC09F0000E51
:10103A002D6E300E53EC09F0000E2D6E380E53EC67
:10104A0009F0000E2D6E100E53EC09F0000E2D6EF5
:10105A000F0E53EC09F0000E2D6E060E53EC09F03C
:10106A0020EE82F010EE60F01F0EDBCFE3FFE80601
:10107A00FCE2000E2D6E400E53EC09F0000E296EB4
:10108A001E0E286EA1EC09F0000E0001816F000E01
:10109A00806F81BF06D0815119E1400E805DD8B0C2
:1010AA0015D0010E2D6E600E8025D96E000E81219D
:1010BA00DA6EDF5053EC09F0000E296E1E0E286E10
:1010CA00A1EC09F00001804B812BE3D7000E2D6EB5
:1010DA00010E53EC09F0000E296E640E286E70ECB6
:1010EA0009F01200FACF01F0FBCF02F0E9CF03F0CA
:1010FA00EACF04F0E1CF05F0E2CF06F0D9CF07F04E
:10110A00DACF08F0F3CF09F0F4CF0AF0F6CF0BF0FC
:10111A00F7CF0CF0F8CF0DF0F5CF0EF035C00FF089
:10112A0036C010F037C011F038C012F012C038F0D3
:10113A0011C037F010C036F00FC035F00EC0F5FF01
:10114A000DC0F8FF0CC0F7FF0BC0F6FF0AC0F4FF92
:10115A0009C0F3FF08C0DAFF07C0D9FF06C0E2FFE3
:10116A0005C0E1FF04C0EAFF03C0E9FF02C0FBFFBC
:10117A0001C0FAFF359211002C0E2C6E000E2D6E56
:10118A0022D0250E2F18D8B404D006D0284A292AEE
:10119A001AD0000E2E6E07D028C0D9FF29C0DAFF58
:1011AA002FC0DFFFF3D72AC0F6FF2BC0F7FF2A4A6A
:1011BA002B2A000EF86E0800F5CF2FF02F50000AE8
:1011CA00D8B40FD0E9D72AC0F6FF2BC0F7FF2A4AB6
:1011DA002B2A000EF86E0800F5CF2FF02F50D8A456
:1011EA00D0D728C0D9FF29C0DAFF000EDF6E12005F
:1011FA00600E286E000E296E30C02AF031C02BF026
:10120A00C1EC08F0000E2D6E335053EC09F0000EBD
:10121A000001716F000E706F0ED0010E2D6E600E00
:10122A007025D96E000E7121DA6EDF5053EC09F089
:10123A000001704B712B600E7025D96E000E712162
:10124A00DA6EDF50D8B41200E8D7DFEC09F0000EEE
:10125A00306E010E2F6E000E326E010E316EB6EC3C
:10126A0009F0010E306E100E316EFDEC08F0130E0F
:10127A00296E880E286E70EC09F0000E306E020E90
:10128A002F6E000E326E010E316EB6EC09F0000EB2
:10129A00306E000E2F6ED9EC09F0FFD72E6E2DB0EE
:1012AA0002D0909401D09084000E296E010E286E0F
:1012BA0070EC09F02EC08DFF9080000E296E010E91
:1012CA00286EA1EC09F09090000E296E320E286E5D
:1012DA00A1EC09F01200000E2C6E000E2B6E0AD043
:1012EA00090E2A6E1C0EE82EFED72A2EFCD700D035
:1012FA002B4A2C2A28502B5C2C50800A2A6E295003
:10130A00800A2A58D8B01200EBD7920EF66E130E46
:10131A00F76E000EF86E00EE82F010EE20F0090073
:10132A00F5CFEEFFE550E150FAE1346A336A3590C1
:10133A00359200012AEF09F0000E2C6E000E2B6E7A
:10134A0005D000D000D000D02B4A2C2A28502B5C84
:10135A002C50800A2A6E2950800A2A58D8B01200C6
:10136A00F0D7020E2F183010D8B402D07F0E01D059
:10137A00BF0E3124336E000E3220346E000E2D6EF5
:10138A00335053EC09F012001F1F0009000400112A
:10139A001F1F00151105141512091209001F001F3D
:1013AA000E08020E001F001F010E2D6E2F5053EC67
:0A13BA0009F0120005EC08F0120023
:020000040001F9
:06FFF800A0F4C4FFF8F7BD
:00000001FF
