:0400000063EF00F0BA
:06000800378226EF01F033
:100018003780D8CF13F0E8CF14F0E0CF15F0FACF3F
:1000280016F0FBCF17F0E9CF18F0EACF19F0E1CFBF
:100038001AF0E2CF1BF0D9CF1CF0DACF1DF0F3CFC6
:100048001EF0F4CF1FF0F6CF20F0F7CF21F0F8CF55
:1000580022F0F5CF23F037C024F038C025F039C09E
:1000680026F03AC027F027C03AF026C039F025C05C
:1000780038F024C037F023C0F5FF22C0F8FF21C0B4
:10008800F7FF20C0F6FF1FC0F4FF1EC0F3FF1DC01E
:10009800DAFF1CC0D9FF1BC0E2FF1AC0E1FF19C07C
:1000A800EAFF18C0E9FF17C0FBFF16C0FAFF15C02A
:1000B800E0FF14C0E8FF13C0D8FF37901000CCEF62
:1000C80001F0000E966EF80E996E909290909094B2
:1000D800000E296EC80E286EB2EC01F0000E2D6ECF
:1000E800300E95EC01F0000E2D6E300E95EC01F0FF
:1000F800000E2D6E300E95EC01F0000E2D6E380EB0
:1001080095EC01F0000E2D6E100E95EC01F0000E2E
:100118002D6E0F0E95EC01F0000E2D6E060E95EC6F
:1001280001F020EE7AF010EE60F0170EDBCFE3FF5F
:10013800E806FCE2000E2D6E400E95EC01F0000E74
:10014800296E1E0E286EE3EC01F0000E0001796F97
:10015800000E786F79BF06D0795119E1400E785DAD
:10016800D8B015D0010E2D6E600E7825D96E000E10
:100178007921DA6EDF5095EC01F0000E296E1E0E23
:10018800286EE3EC01F00001784B792BE3D7000EE1
:100198002D6E010E95EC01F0000E296E640E286E8E
:1001A800B2EC01F01200000E306E960E2F6E000EAB
:1001B800326E000E316E32BE06D0325042E1100E61
:1001C800315CD8B0120031B01DD0000E2D6E315008
:1001D800800F95EC01F0010E2D6E000E95EC01F0EC
:1001E8002FC028F030C029F0B2EC01F0000E2D6EBF
:1001F800010E95EC01F02FC028F030C029F0B2ECC8
:1002080001F01CD0000E2D6E3150800F95EC01F0DE
:10021800010E2D6E010E95EC01F02FC028F030C0B4
:1002280029F0B2EC01F0000E2D6E010E95EC01F0F4
:100238002FC028F030C029F0B2EC01F0314A322A40
:10024800BAD71200FACF01F0FBCF02F0E9CF03F0E2
:10025800EACF04F0E1CF05F0E2CF06F0D9CF07F0FE
:10026800DACF08F0F3CF09F0F4CF0AF0F6CF0BF0AD
:10027800F7CF0CF0F8CF0DF0F5CF0EF037C00FF038
:1002880038C010F039C011F03AC012F012C03AF07C
:1002980011C039F010C038F00FC037F00EC0F5FFAC
:1002A8000DC0F8FF0CC0F7FF0BC0F6FF0AC0F4FF43
:1002B80009C0F3FF08C0DAFF07C0D9FF06C0E2FF94
:1002C80005C0E1FF04C0EAFF03C0E9FF02C0FBFF6D
:1002D80001C0FAFF3792110065EC00F0000E2D6E98
:1002E8000C0E95EC01F0000E2D6E800E95EC01F0D1
:1002F800000E346E000E336E34BE06D0345010E15A
:100308000F0E335CD8B00CD0D7EC00F0334A342A47
:1003180034BEFAD7345004E10F0E335CD8A0F4D7BA
:10032800FFD72E6E2DB002D0909401D09084000E8D
:10033800296E010E286EB2EC01F02EC08DFF908060
:10034800000E296E010E286EE3EC01F09090000E6D
:10035800296E320E286EE3EC01F01200000E2C6EAE
:10036800000E2B6E0AD0090E2A6E1C0EE82EFED740
:100378002A2EFCD700D02B4A2C2A28502B5C2C5034
:10038800800A2A6E2950800A2A58D8B01200EBD762
:10039800F00EF66E030EF76E000EF86E00EE7AF0B1
:1003A80010EE18F00900F5CFEEFFE550E150FAE144
:1003B800366A356A37903792000170EF01F0000E07
:1003C8002C6E000E2B6E05D000D000D000D02B4A2A
:1003D8002C2A28502B5C2C50800A2A6E2950800A1F
:1003E8002A58D8B01200F0D70E1D1F1C181C1F0E5B
:1003F8000E1D1F1F181F1F0E0E1F151F1F1F15155F
:020000040001F9
:06FFF800A0F4C4FFF8F7BD
:00000001FF
